:1000000081C0000091C000008FC000008DC00000C2
:100010008BC0000089C0000087C0000085C00000C0
:1000200083C0000081C000007FC000007DC00000D0
:100030007BC0000079C0000077C0000075C00000E0
:1000400073C0000072C000006FC000006DC00000EF
:100050006BC0000069C0000067C0000065C0000000
:1000600063C0000092C000005FC000005DC00000DF
:100070005BC0000059C0000057C0000055C0000020
:1000800053C0000051C000004FC000004DC0000030
:100090004BC0000049C0000047C0000045C0000040
:1000A00043C0000041C000003FC000003DC0000050
:1000B0003BC0000039C0000037C0000035C0000060
:1000C00033C0000031C000002FC000002DC0000070
:1000D0002BC0000029C0000027C0000025C0000080
:1000E00023C00000DA01DE01E401E801EC01F001C7
:1000F000F401F801B402C302DA02F10208031E039C
:100100003D035D0311241FBECFEFD1E2DEBFCDBFA3
:1001100000E00CBF23E0A0E0B2E001C01D92A231DC
:10012000B207E1F7C1D371C46BCF1F920F920FB624
:100130000F9211242F933F934F935F938F939F932D
:1001400020910202222329F02091020221502093C3
:1001500002022091080330910603422F50E032FB47
:10016000882780F990E084239523892B19F021506A
:10017000209308039F918F915F914F913F912F9111
:100180000F900FBE0F901F9018951F920F920FB6F1
:100190000F9211240BB60F928F93EF93FF93E09180
:1001A000050381E08E0F80930503F0E08091C60087
:1001B000ED5FFD4F8083FF91EF918F910F900BBE0C
:1001C0000F900FBE0F901F90189584EA8093BC008B
:1001D0008091BC008823E4F78091B900887F8093E8
:1001E0000F03883011F0803119F481E08093090306
:1001F000089588E78093BB0084E88093BC008091D9
:10020000BC008823E4F78091B900887F80930F03B6
:10021000883111F0803219F482E080930903089547
:100220008093BB0084E88093BC008091BC0088234D
:10023000E4F78091B900887F80930F038C3111F02F
:100240008E3121F482E080930903089584E0809345
:100250000903089584E98093BC008091BC0084FD6B
:10026000FCCF0895CF93DF93D82FC62FAEDFC1DF29
:100270008D2FD6DF8C2FD4DFEDDFDF91CF91089566
:10028000E1E8F0E088E0808386B386BB82E080937B
:10029000890091E7909388009CE0908380936F00A1
:1002A0000895E2ECF0E080818F7B808380818F77FE
:1002B000808380818F7E808380818F7D808382E0B8
:1002C0008083808184608083E1ECF0E080818B7F9B
:1002D0008083A0ECB0E08C918D7F8C9387E690E0DA
:1002E0009093C5008093C400808180618083808169
:1002F0008860808380818068808308951F93CF9376
:10030000DF9388E08093B800E9EBF0E080818D7F97
:100310008083808181608083ECEBF0E08081846069
:1003200080836EEA80E09EDF65ED80E09BDF60E821
:1003300080E098DF68EA80E095DF6FE380E092DF9D
:1003400063ED80E08FDF60E080E08CDF60E480E0E0
:1003500089DF61EA80E086DF68EC80E083DF6AEDB8
:1003600080E080DF62E180E07DDF61E880E07ADFCD
:100370006FE980E077DF69ED80E074DF62E280E0C2
:1003800071DF6BED80E06EDF60E480E06BDF64EADC
:1003900080E068DF66EA80E065DF10E035C0812F2D
:1003A00090E08830910568F4FC018827EE58FF4FF3
:1003B0008F4F23C360EB80E055DF03C061EB80E02B
:1003C00051DFC0E0D0E01CC062EB80E04BDFF9CF32
:1003D00063EB80E047DFF5CF64EB80E043DFF1CFF4
:1003E00065EB80E03FDFEDCF66EB80E03BDFE9CF00
:1003F00067EB80E037DFE5CF60E080E433DF219614
:10040000C038D105CCF31F5F183008F4C8CF6FEAAD
:1004100080E028DF2FEF81EE94E021508040904073
:10042000E1F700C0000064EA80E01CDF2FEF83EDFD
:1004300090E3215080409040E1F700C0000065EA61
:1004400080E010DF2FEF83ED90E32150804090405B
:10045000E1F700C0000064EA80E004DF2FEF83EDE5
:1004600090E3215080409040E1F700C0000063EB32
:1004700080E0F8DE6FE080E0F5DE60E180E0F2DE53
:100480006FEF80E4EFDE68E880E4ECDE68E880E4AB
:10049000E9DE60E880E4E6DE60E880E4E3DE60E078
:1004A00080E4E0DE60E080E4DDDE60E080E4DADE6F
:1004B0006FE780E4D7DE61E880E4D4DE61E880E4C1
:1004C000D1DE61E880E4CEDE61E880E4CBDE60E08E
:1004D00080E4C8DE60E080E4C5DE60E080E4C2DE87
:1004E0006FE780E4BFDE68E880E4BCDE68E880E4B3
:1004F000B9DE68E880E4B6DE6FE780E4B3DE60E092
:1005000080E4B0DE60E080E4ADDE60E080E4AADE9E
:100510006FEF80E4A7DE61E080E4A4DE61E080E4C8
:10052000A1DE61E080E49EDE61E080E49BDE60E0CD
:1005300080E498DE60E080E495DE60E080E492DEB6
:10054000DF91CF911F91089530910503EAC0E091AA
:100550000002F0910102E830F10508F0D9C08827C7
:10056000E658FF4F8F4F49C2E22FF0E0ED5FFD4F9D
:100570008081853509F0D0C081E090E09093010240
:1005800080930002C9C0A22FB0E0AD5FBD4F8C9137
:100590008E3439F482E090E090930102809300025F
:1005A000BBC01092010210920002EFEFE20FE09345
:1005B0000403B2C0A22FB0E0AD5FBD4F8C91853473
:1005C00039F483E090E09093010280930002A4C08C
:1005D0001092010210920002EFEFE20FE093040389
:1005E0009BC0A22FB0E0AD5FBD4F8C91823539F436
:1005F00084E090E090930102809300028DC01092FD
:10060000010210920002EFEFE20FE093040384C0B6
:10061000E22FF0E0ED5FFD4F9081492F50E05093C5
:100620000B0340930A038CE0892780930E0385E037
:1006300090E090930102809300026EC0E22FF0E000
:10064000ED5FFD4F2081822F90E0982F8827409109
:100650000A0350910B03840F951F90930B03809313
:100660000A0380910E03282720930E0386E090E072
:1006700090930102809300024FC0E22FF0E0ED5F03
:10068000FD4F80818A3381F447E050E050930102AE
:1006900040930002E1E0E20FE0930C0390910E031F
:1006A000892780930E0338C0109201021092000235
:1006B000EFEFE20FE09304032FC080910A039091C3
:1006C0000B038130910551F0E22FF0E0ED5FFD4F1B
:1006D000408150910E03452740930E03019790935C
:1006E0000B0380930A03892BB9F4E22FF0E0ED5F4E
:1006F000FD4F908180910E03981305C080910603F1
:10070000816080930603109201021092000204C0DF
:100710001092010210920002809104038F5F809377
:10072000040320910403321312CF0895E0910C03C7
:10073000F0E0ED5FFD4F80818D3201F1803F19F0D7
:100740008B3269F509C081E0809303038091060331
:10075000826080930603089580910703863028F015
:100760008091070385508093070382E08093030301
:1007700080910603826080930603089580910703A9
:10078000843628F4809107038B5F8093070383E00E
:10079000809303038091060382608093060308958B
:1007A000CF93DF93CDB7DEB764970FB6F894DEBF73
:1007B0000FBECDBF85E589838EE48A8385E48B8374
:1007C00082E58C831D821E828AE38F8380910303DE
:1007D000823051F0833089F08130C1F480EF888716
:1007E00082E08D8348E013C08BE288878091070305
:1007F000898783E08D8349E00AC08DE288878091F4
:100800000703898783E08D8349E001C047E080E0EA
:1008100090E00DC0E1E0F0E0EC0FFD1FE80FF91FE4
:10082000208130910D03232720930D030196242F5F
:1008300030E08217930774F34F5FE1E0F0E0EC0FD4
:10084000FD1FE20FF31F80910D03808320E030E055
:100850000FC08091C00085FF0BC0E1E0F0E0EC0F1D
:10086000FD1FE20FF31F80818093C6002F5F3F4F73
:10087000842F90E02817390764F3809106038E7F58
:1008800080930603809106038D7F80930603109268
:10089000030310920D0364960FB6F894DEBF0FBEEB
:1008A000CDBFDF91CF910895F894EADCFADC26DD24
:1008B0001092090389E180930202809102028093E1
:1008C00007038AE08093080380910603877F809363
:1008D0000603809106038B7F8093060380E284B930
:1008E00085B1806885B98AB18B7F8AB98BB1806800
:1008F0008BB9789485B18F7785B94A996CC063EBD1
:1009000080E0B0DC6FE080E0ADDC60E180E0AADC9C
:100910006FEF80E4A7DC68E880E4A4DC68E880E4AA
:10092000A1DC60E880E49EDC60E880E49BDC60E0C1
:1009300080E498DC60E080E495DC60E080E492DCB8
:100940006FE780E48FDC61E880E48CDC61E880E4C0
:1009500089DC61E880E486DC61E880E483DC60E0D7
:1009600080E480DC60E080E47DDC60E080E47ADCD0
:100970006FE780E477DC68E880E474DC68E880E4B2
:1009800071DC68E880E46EDC6FE780E46BDC60E0DB
:1009900080E468DC60E080E465DC60E080E462DCE8
:1009A0006FEF80E45FDC61E080E45CDC61E080E4C8
:1009B00059DC61E080E456DC61E080E453DC60E017
:1009C00080E450DC60E080E44DDC60E080E44ADC00
:1009D00085B1806885B990910403809105039817CB
:1009E00009F48BCFB1DD8091060380FD9FDE8091FD
:1009F000060381FF82CFD4DE80CFEE0FFF1F881F5A
:0E0A00008BBF0790F691E02D1994F894FFCF6C
:00000001FF
